{
  "address": "0x67792363252174cC2E5D3222c42882BCaA9a99E7",
  "abi": [
    {
      "inputs": [],
      "stateMutability": "nonpayable",
      "type": "constructor"
    },
    {
      "inputs": [],
      "name": "createCampaign",
      "outputs": [],
      "stateMutability": "nonpayable",
      "type": "function"
    },
    {
      "inputs": [],
      "name": "participate",
      "outputs": [],
      "stateMutability": "payable",
      "type": "function"
    }
  ],
  "transactionHash": "0x09201b13e51b4633fe137d2004fab789b4389439b938a0722391585db3ccfd75",
  "args": [],
  "numDeployments": 1,
  "solcInputHash": "d2bdc62f929b0735bbf776e3e6f44bc5",
  "bytecode": "0x6080604052348015600f57600080fd5b50606e80601d6000396000f3fe60806040526004361060265760003560e01c80636201fe6914602b578063d11711a2146036575b600080fd5b348015603657600080fd5b00fea264697066735822122079049ea2ae774bbfba81cd40521b08a4dfe21517c0cdb4026c485905a984bd8064736f6c63430008130033",
  "devdoc": {
    "kind": "dev",
    "methods": {},
    "version": 1
  },
  "userdoc": {
    "kind": "user",
    "methods": {},
    "version": 1
  },
  "storageLayout": {
    "storage": [],
    "types": null
  }
}